:100000000C942A000C943F000C943F000C943F0089
:100010000C943F000C943F000C943F000C943F0064
:100020000C943F000C943F000C943F000C943F0054
:100030000C943F000C943F000C943F000C943F0044
:100040000C943F000C943F000C943F000C943F0034
:100050000C943F0011241FBECFE5D8E0DEBFCDBF1A
:1000600011E0A0E6B0E0EEEEF0E102C005900D92E6
:10007000AA37B107D9F70E9427070C9475080C948A
:100080000000A0E2B0E0E7E4F0E00C943E086983F1
:100090007A838B839C832D833E834F835887CE0145
:1000A0000196BE01675F7F4F0E94BD03CE0105969A
:1000B000BE016F5E7F4F0E94BD039985923088F02C
:1000C00089898230C8F0943019F4823051F404C028
:1000D000843029F4923081F480E690E0C6C09230FA
:1000E00049F420E09A858A89981321E02A87CE0175
:1000F0000996BBC0823049F420E09A858A8998131A
:1001000021E02A8BCE014196B0C02D843E844F84DD
:1001100058886D887E888F88988CEE24FF2487010C
:10012000AA24BB24650140E050E060E070E0E0E01C
:10013000F0E0C10181709070892BE9F0E60CF71CAA
:10014000081D191D9A01AB012A0D3B1D4C1D5D1D9B
:1001500080E090E0A0E0B0E0E614F704080519059F
:1001600020F481E090E0A0E0B0E0BA01A901480FDE
:10017000591F6A1F7B1FAA0CBB1CCC1CDD1C97FEE1
:1001800008C081E090E0A0E0B0E0A82AB92ACA2A1D
:10019000DB2A3196E032F10549F0660C771C881CA9
:1001A000991C5694479437942794C3CFFA85EA89CB
:1001B0002B893C898B859C85280F391F2E5F3F4FEB
:1001C00017C0CA0181709070892B61F01695079550
:1001D000F794E79480E090E0A0E0B0E8E82AF92AFC
:1001E0000A2B1B2B76956795579547952F5F3F4FA9
:1001F00077FDE7CF0CC0440F551F661F771F17FD13
:100200004160EE0CFF1C001F111F21503040403098
:1002100090E0590790E0690790E4790760F32B8F2D
:100220003C8FDB01CA018F779070A070B070803472
:100230009105A105B10561F447FD0AC0E114F1047F
:100240000105110529F0405C5F4F6F4F7F4F4078EB
:100250001A8EFE1711F081E08A8F4D8F5E8F6F8F9F
:1002600078A383E0898FCE0149960E94E802A09688
:10027000E2E10C945A08A8E1B0E0E1E4F1E00C946A
:10028000460869837A838B839C832D833E834F83C7
:100290005887B9E0EB2EF12CEC0EFD1ECE01019635
:1002A000B7010E94BD038E010F5E1F4FCE01059660
:1002B000B8010E94BD032985223008F47EC0398927
:1002C000323010F4B8017CC08A859A8989278A87E0
:1002D000243011F0223031F4231709F06EC060E6AB
:1002E00070E06EC0343039F41D861E861F86188A71
:1002F0001C861B8604C0323021F484E08987B70154
:100300005FC02B853C858B899C89281B390B3C87DA
:100310002B87ED84FE840F851889AD88BE88CF8831
:10032000D88CEA14FB040C051D0540F4EE0CFF1CF0
:10033000001F111F215030403C872B8720E030E008
:1003400040E050E080E090E0A0E0B0E460E070E0E9
:10035000EA14FB040C051D0540F0282B392B4A2B11
:100360005B2BEA18FB080C091D09B695A795979514
:100370008795EE0CFF1C001F111F6F5F7F4F6F31C1
:10038000710531F7DA01C9018F779070A070B070F4
:1003900080349105A105B10561F427FD0AC0E1147F
:1003A000F1040105110529F0205C3F4F4F4F5F4FCD
:1003B00020782D873E874F87588BBE01675F7F4F20
:1003C000CB010E94E8026896EAE00C946208A8E07B
:1003D000B0E0EDEEF1E00C9447089B01AC0183E046
:1003E0008983DA01C9018827B7FD83959927AA2750
:1003F000BB27B82E211531054105510519F482E0BE
:1004000089833AC08823A9F0203080E0380780E053
:10041000480780E8580729F460E070E080E09FEC2E
:1004200030C0EE24FF248701E21AF30A040B150BF7
:1004300002C079018A018EE1C82ED12CDC82CB82E8
:10044000ED82FE820F831887C801B7010E949902CE
:1004500001971816190684F4082E04C0EE0CFF1C30
:10046000001F111F0A94D2F7ED82FE820F831887B6
:10047000C81AD90ADC82CB82BA82CE0101960E94C8
:10048000E8022896E9E00C946308ACE0B0E0EBE405
:10049000F2E00C944E0869837A838B839C83CE01AF
:1004A0000196BE016B5F7F4F0E94BD038D8182303C
:1004B00061F1823050F1843021F48E81882351F132
:1004C0002EC02F81388537FD20C06E812F31310538
:1004D0001CF06623F9F023C08EE190E0821B930BA1
:1004E00029853A854B855C8504C056954795379597
:1004F00027958A95D2F76623B1F0509540953095AF
:1005000021953F4F4F4F5F4F0EC020E030E040E05D
:1005100050E009C02FEF3FEF4FEF5FE704C020E04E
:1005200030E040E050E8B901CA012C96E2E00C94BA
:100530006A08EF92FF920F931F937B018C0180E07A
:10054000E81680E0F80681E0080780E0180788F4E4
:100550008FEFE816F1040105110531F028F088E06D
:1005600090E0A0E0B0E017C080E090E0A0E0B0E054
:1005700012C080E0E81680E0F80680E0080781E01D
:10058000180728F088E190E0A0E0B0E004C080E126
:1005900090E0A0E0B0E020E230E040E050E0281B36
:1005A000390B4A0B5B0B04C016950795F794E7943B
:1005B0008A95D2F7F701E859FF4F8081281B31094E
:1005C00041095109C9011F910F91FF90EF900895C2
:1005D000DF92EF92FF920F931F93FC01E480F5806E
:1005E00006811781D1808081823048F480E090E0DC
:1005F000A0E1B0E0E82AF92A0A2B1B2BA5C0843021
:1006000009F49FC0823021F4EE24FF24870105C045
:10061000E114F1040105110519F4E0E0F0E096C0E1
:10062000628173819FEF623879070CF05BC022E82A
:100630003FEF261B370B2A3131052CF020E030E04C
:1006400040E050E02AC0B801A701022E04C0769510
:100650006795579547950A94D2F781E090E0A0E01E
:10066000B0E004C0880F991FAA1FBB1F2A95D2F7BC
:100670000197A109B1098E219F21A023B1230097E1
:10068000A105B10521F081E090E0A0E0B0E09A0181
:10069000AB01282B392B4A2B5B2BDA01C9018F7751
:1006A0009070A070B07080349105A105B10539F447
:1006B00027FF09C0205C3F4F4F4F5F4F04C0215CB4
:1006C0003F4F4F4F5F4FE0E0F0E02030A0E03A07AF
:1006D000A0E04A07A0E45A0710F0E1E0F0E0790159
:1006E0008A0127C06038710564F5FB01E158FF4FAE
:1006F000D801C7018F779070A070B07080349105D9
:10070000A105B10539F4E7FE0DC080E490E0A0E05A
:10071000B0E004C08FE390E0A0E0B0E0E80EF91E86
:100720000A1F1B1F17FF05C016950795F794E7943E
:10073000319687E016950795F794E7948A95D1F757
:1007400005C0EE24FF248701EFEFF0E06E2F6795E0
:1007500066276795902F9F77D794DD24D7948E2FA7
:100760008695492F462B582F5D29B701CA011F9145
:100770000F91FF90EF90DF900895FC01DB01408125
:1007800051812281622F6F7770E0221F2227221F62
:100790009381892F880F822B282F30E0991F99276A
:1007A000991F11969C93119721153105A9F54115B3
:1007B00051056105710511F482E037C082E89FEFB1
:1007C00013969C938E9312979A01AB0167E0220FC8
:1007D000331F441F551F6A95D1F783E08C930DC0DA
:1007E000220F331F441F551F12968D919C91139712
:1007F000019713969C938E931297203080E03807D0
:1008000080E0480780E4580758F314962D933D93F1
:100810004D935C93179708952F3F310579F4411557
:1008200051056105710519F484E08C93089564FF06
:1008300003C081E08C9312C01C9210C02F5730402F
:1008400013963C932E93129783E08C9387E0440F8A
:10085000551F661F771F8A95D1F7706414964D93C4
:100860005D936D937C93179708954130B1F5813076
:1008700099F0813030F08230D1F0833009F065C0DA
:1008800021C02BB381E090E002C0880F991F6A95C8
:10089000E2F7282B2BBB089528B381E090E002C03B
:1008A000880F991F6A95E2F7282B28BB089525B376
:1008B00081E090E002C0880F991F6A95E2F7282B2B
:1008C00025BB089522B381E090E002C0880F991FF4
:1008D0006A95E2F7282B22BB0895813099F0813088
:1008E00028F08230D9F0833081F524C02BB381E029
:1008F00090E002C0880F991F6A95E2F780958223E5
:100900008BBB089528B381E090E002C0880F991F47
:100910006A95E2F78095822388BB089525B381E02C
:1009200090E002C0880F991F6A95E2F780958223B4
:1009300085BB089522B381E090E002C0880F991F23
:100940006A95E2F78095822382BB0895813049F051
:10095000813028F0823039F0833041F406C06BBB1F
:10096000089568BB089565BB089562BB0895813002
:1009700091F0813028F08230C9F0833061F521C0D8
:100980002BB381E090E002C0880F991F6A95E2F7CF
:1009900028272BBB089528B381E090E002C0880F80
:1009A000991F6A95E2F7282728BB089525B381E0AF
:1009B00090E002C0880F991F6A95E2F7282725BBAF
:1009C000089522B381E090E002C0880F991F6A95D4
:1009D000E2F7282722BB0895813051F0813030F0B2
:1009E000823041F0833079F080E0089589B303C00C
:1009F00086B301C083B390E002C0959587956A9550
:100A0000E2F78170089580B390E002C095958795D4
:100A10006A95E2F781700895813051F0813030F0AD
:100A2000823041F0833041F080E0089589B3089529
:100A300086B3089583B3089580B308954130B1F526
:100A4000813099F0813030F08230D1F0833009F07C
:100A500065C021C02AB381E090E002C0880F991FD1
:100A60006A95E2F7282B2ABB089527B381E090E02E
:100A700002C0880F991F6A95E2F7282B27BB0895BB
:100A800024B381E090E002C0880F991F6A95E2F7D5
:100A9000282B24BB089521B381E090E002C0880F89
:100AA000991F6A95E2F7282B21BB0895813099F0B0
:100AB000813028F08230D9F0833081F524C02AB308
:100AC00081E090E002C0880F991F6A95E2F7809557
:100AD00082238ABB089527B381E090E002C0880F8B
:100AE000991F6A95E2F78095822387BB089524B306
:100AF00081E090E002C0880F991F6A95E2F7809527
:100B0000822384BB089521B381E090E002C0880F66
:100B1000991F6A95E2F78095822381BB0895813001
:100B200049F0813028F0823039F0833041F406C03A
:100B30006ABB089567BB089564BB089561BB0895BF
:100B4000FF920F931F93F82E81E060E041E00E9436
:100B5000350481E061E040E00E94350400ED17E0DB
:100B6000C8010197F1F780E06F2D0E94A604C8012B
:100B70000197F1F781E062E041E00E943504C8018D
:100B80000197F1F781E062E040E00E943504C8017E
:100B90000197F1F71F910F91FF900895EF92FF9247
:100BA0000F931F93DF93CF930F92CDB7DEB78C01D6
:100BB00097FF0AC08DE20E94A00588279927801B15
:100BC000910B0E94CE0506C0009721F480E30E949D
:100BD000A00507C0C8016AE070E00E941708892BD1
:100BE00011F0198204C00F5F1F4F81E08983EE244A
:100BF000FF2417C0C70133E0880F991F3A95E1F72A
:100C0000EE0CFF1CE80EF91EC8016AE070E00E94BD
:100C10001708E80EF91EC8016AE070E00E94170884
:100C20008B011016110634F318C0C7016AE070E09A
:100C30000E941708805D0E94A005C7016AE070E06D
:100C40000E9417087B016130710539F4F981F13098
:100C500061F780E30E94A00503C01E141F042CF35B
:100C60000F90CF91DF911F910F91FF90EF9008951A
:100C70000F931F93182F81E060E040E00E9435043D
:100C800081E061E040E00E94350480E0612F0E9435
:100C9000A60400ED17E0C8010197F1F781E062E0DA
:100CA00041E00E943504C8010197F1F781E062E05C
:100CB00040E00E9435041F910F910895605882957D
:100CC000880F880F807C860F0E94380608950F9346
:100CD0001F93CF93DF938B01880F880F880F805C61
:100CE0000E943806C0E0D0E0F801EC0FFD1F8081C3
:100CF0000E94A0052196C830D105B1F780E060E0E0
:100D00000E945E06DF91CF911F910F9108950F937E
:100D10001F9381E060E041E00E941E0581E061E0F8
:100D200041E00E941E0581E062E041E00E941E0554
:100D300080E06FEF0E948F0580E991E028EC30E0C1
:100D4000F9013197F1F70197D9F788E30E94380646
:100D500000ED17E0C8010197F1F78CE00E9438061A
:100D6000C8010197F1F781E00E94380680EA9FE010
:100D70000197F1F786E00E9438061F910F910895C0
:100D8000DF92EF92FF920F931F93CF93DF93DD24B7
:100D9000FF24C0E5D6E482E06F2D40E00E943504D8
:100DA000EF2CE3940E2D14E082E0612F0E94EC04FE
:100DB000882309F4D02E82E0612F0E94EC0488235E
:100DC000D1F3CE010197F1F71F5F0C5F183061F787
:100DD00082E06F2D41E00E94350484E0E81611F0B6
:100DE000FE2CD9CF8D2DDF91CF911F910F91FF90C8
:100DF000EF90DF90089582E06FE00E948F0582E01F
:100E00006FEF0E94A6040895DC0120E030E040E08E
:100E100050E070E06150704015C0C901F3E0880FE8
:100E2000991FFA95E1F7220F331F820F931FFD01DF
:100E3000E40FF51F208130E020533040280F391F88
:100E40004F5F5F4F4617570744F3C90108952F922C
:100E50003F924F925F926F927F928F929F92AF924A
:100E6000BF92CF92DF92EF92FF920F931F93DF9387
:100E7000CF93CDB7DEB7A2970FB6F894DEBF0FBE03
:100E8000CDBF0E94FB060E948706DE015196E8E670
:100E9000F1E081E101900D928150E1F7FE01319680
:100EA00080E1DF011D928A95E9F79924AA24BB24E9
:100EB0000F2EF0E0EF2EF0E0FF2EF0E00F2FF0E02D
:100EC0001F2FF02D88241AA2662477242F01ACE965
:100ED0002A2EAFEF3A2E02C0B1E0BAA30E94C0069C
:100EE000E1E1F0E0EC0FFD1FE80FF11DD080DD2007
:100EF00009F488C08D2D0E94A005F201E90DF11DB5
:100F0000D0828AA1813011F0939405C081E00E94C3
:100F1000380699241AA2ADE3DA1609F073C0C201AB
:100F2000692D0E9404076C01BBE28B1641F4CA0CC8
:100F3000DB1CB601882777FD8095982F0AC08DE2CB
:100F4000881661F4B5016C197D09882777FD8095B5
:100F5000982F0E94E7017B018C013BC0AAE28A1610
:100F600041F4CA9CB001CB9C700DDA9C700D112429
:100F7000ECCFBFE28B1669F5B501882777FD809528
:100F8000982F0E94E7017B018C01B601882777FD2D
:100F90008095982F0E94E7019B01AC01C801B70121
:100FA0000E943B017B018C010E944502629D300141
:100FB000639D700C729D700C1124C801B70120E074
:100FC00030E048EC52E40E9441000E944502660E67
:100FD000771E81E060E00E945E06C801B7010E94B2
:100FE0004502DC01CB010E94CE058FE2881609F094
:100FF00073CF8EE20E94A005C3010E94CE05A1E03E
:10100000AAA36CCF8D2D80538A3008F467CFDD20E2
:1010100009F464CFB3E4DB1611F481E08AA3C201C2
:10102000692D0E9404075C018D2C992457CF97FBF2
:10103000092E07260AD077FD04D00CD006D0002058
:101040001AF4709561957F4F0895F6F79095819504
:101050009F4F0895AA1BBB1B51E107C0AA1FBB1FCE
:10106000A617B70710F0A61BB70B881F991F5A9534
:10107000A9F780959095BC01CD0108952F923F92DC
:101080004F925F926F927F928F929F92AF92BF9298
:10109000CF92DF92EF92FF920F931F93CF93DF9344
:1010A000CDB7DEB7CA1BDB0B0FB6F894DEBF0FBEA1
:1010B000CDBF09942A88398848885F846E847D84EE
:1010C0008C849B84AA84B984C884DF80EE80FD80F0
:1010D0000C811B81AA81B981CE0FD11D0FB6F89466
:0E10E000DEBF0FBECDBFED010895F894FFCF27
:1010EE0000000000000000000001020203030303E1
:1010FE00040404040404040405050505050505059A
:10110E000505050505050505060606060606060679
:10111E000606060606060606060606060606060661
:10112E000606060606060606070707070707070749
:10113E000707070707070707070707070707070731
:10114E000707070707070707070707070707070721
:10115E000707070707070707070707070707070711
:10116E0007070707070707070808080808080808F9
:10117E0008080808080808080808080808080808E1
:10118E0008080808080808080808080808080808D1
:10119E0008080808080808080808080808080808C1
:1011AE0008080808080808080808080808080808B1
:1011BE0008080808080808080808080808080808A1
:1011CE000808080808080808080808080808080891
:1011DE000808080808080808080808080808080881
:1011EE000808080808080808003738392F3435363B
:0A11FE002A3132332D43303D2B001F
:00000001FF
